{
  "_format": "hh-sol-artifact-1",
  "contractName": "VeriTrustAnchor",
  "sourceName": "blockchain/contracts/VeriTrustAnchor.sol",
  "abi": [
    {
      "anonymous": false,
      "inputs": [
        {
          "indexed": true,
          "internalType": "address",
          "name": "issuer",
          "type": "address"
        },
        {
          "indexed": true,
          "internalType": "bytes32",
          "name": "credentialHash",
          "type": "bytes32"
        },
        {
          "indexed": false,
          "internalType": "uint256",
          "name": "timestamp",
          "type": "uint256"
        }
      ],
      "name": "CredentialAnchored",
      "type": "event"
    },
    {
      "inputs": [
        {
          "internalType": "bytes32",
          "name": "credentialHash",
          "type": "bytes32"
        }
      ],
      "name": "anchorCredential",
      "outputs": [],
      "stateMutability": "nonpayable",
      "type": "function"
    },
    {
      "inputs": [
        {
          "internalType": "address",
          "name": "issuer",
          "type": "address"
        },
        {
          "internalType": "bytes32",
          "name": "credentialHash",
          "type": "bytes32"
        }
      ],
      "name": "verifyCredential",
      "outputs": [
        {
          "internalType": "bool",
          "name": "",
          "type": "bool"
        }
      ],
      "stateMutability": "view",
      "type": "function"
    }
  ],
  "bytecode": "0x6080604052348015600f57600080fd5b506104688061001f6000396000f3fe608060405234801561001057600080fd5b50600436106100365760003560e01c806312d491971461003b5780635f889e1714610057575b600080fd5b61005560048036038101906100509190610280565b610087565b005b610071600480360381019061006c919061030b565b6101de565b60405161007e9190610366565b60405180910390f35b6000803373ffffffffffffffffffffffffffffffffffffffff1673ffffffffffffffffffffffffffffffffffffffff168152602001908152602001600020600082815260200190815260200160002060009054906101000a900460ff1615610124576040517f08c379a000000000000000000000000000000000000000000000000000000000815260040161011b906103de565b60405180910390fd5b60016000803373ffffffffffffffffffffffffffffffffffffffff1673ffffffffffffffffffffffffffffffffffffffff168152602001908152602001600020600083815260200190815260200160002060006101000a81548160ff021916908315150217905550803373ffffffffffffffffffffffffffffffffffffffff167fc1a336f8e57497d0a098ac459653b19abea815bfc2fdd6537821d55744f966bd426040516101d39190610417565b60405180910390a350565b60008060008473ffffffffffffffffffffffffffffffffffffffff1673ffffffffffffffffffffffffffffffffffffffff168152602001908152602001600020600083815260200190815260200160002060009054906101000a900460ff16905092915050565b600080fd5b6000819050919050565b61025d8161024a565b811461026857600080fd5b50565b60008135905061027a81610254565b92915050565b60006020828403121561029657610295610245565b5b60006102a48482850161026b565b91505092915050565b600073ffffffffffffffffffffffffffffffffffffffff82169050919050565b60006102d8826102ad565b9050919050565b6102e8816102cd565b81146102f357600080fd5b50565b600081359050610305816102df565b92915050565b6000806040838503121561032257610321610245565b5b6000610330858286016102f6565b92505060206103418582860161026b565b9150509250929050565b60008115159050919050565b6103608161034b565b82525050565b600060208201905061037b6000830184610357565b92915050565b600082825260208201905092915050565b7f416c726561647920616e63686f72656400000000000000000000000000000000600082015250565b60006103c8601083610381565b91506103d382610392565b602082019050919050565b600060208201905081810360008301526103f7816103bb565b9050919050565b6000819050919050565b610411816103fe565b82525050565b600060208201905061042c6000830184610408565b9291505056fea2646970667358221220d491ce14737a90758abf5eed86de76671570fc3d1d6035e756a8c639bc211d8e64736f6c634300081c0033",
  "linkReferences": {},
  "deployedLinkReferences": {}
}